{
  "contractName": "AccessControlled_ERC721",
  "abi": [
    {
      "inputs": [
        {
          "internalType": "string",
          "name": "name",
          "type": "string"
        },
        {
          "internalType": "string",
          "name": "symbol",
          "type": "string"
        },
        {
          "internalType": "string",
          "name": "baseTokenURI",
          "type": "string"
        }
      ],
      "stateMutability": "nonpayable",
      "type": "constructor"
    },
    {
      "anonymous": false,
      "inputs": [
        {
          "indexed": true,
          "internalType": "address",
          "name": "owner",
          "type": "address"
        },
        {
          "indexed": true,
          "internalType": "address",
          "name": "approved",
          "type": "address"
        },
        {
          "indexed": true,
          "internalType": "uint256",
          "name": "tokenId",
          "type": "uint256"
        }
      ],
      "name": "Approval",
      "type": "event"
    },
    {
      "anonymous": false,
      "inputs": [
        {
          "indexed": true,
          "internalType": "address",
          "name": "owner",
          "type": "address"
        },
        {
          "indexed": true,
          "internalType": "address",
          "name": "operator",
          "type": "address"
        },
        {
          "indexed": false,
          "internalType": "bool",
          "name": "approved",
          "type": "bool"
        }
      ],
      "name": "ApprovalForAll",
      "type": "event"
    },
    {
      "anonymous": false,
      "inputs": [
        {
          "indexed": true,
          "internalType": "bytes32",
          "name": "role",
          "type": "bytes32"
        },
        {
          "indexed": true,
          "internalType": "bytes32",
          "name": "previousAdminRole",
          "type": "bytes32"
        },
        {
          "indexed": true,
          "internalType": "bytes32",
          "name": "newAdminRole",
          "type": "bytes32"
        }
      ],
      "name": "RoleAdminChanged",
      "type": "event"
    },
    {
      "anonymous": false,
      "inputs": [
        {
          "indexed": true,
          "internalType": "bytes32",
          "name": "role",
          "type": "bytes32"
        },
        {
          "indexed": true,
          "internalType": "address",
          "name": "account",
          "type": "address"
        },
        {
          "indexed": true,
          "internalType": "address",
          "name": "sender",
          "type": "address"
        }
      ],
      "name": "RoleGranted",
      "type": "event"
    },
    {
      "anonymous": false,
      "inputs": [
        {
          "indexed": true,
          "internalType": "bytes32",
          "name": "role",
          "type": "bytes32"
        },
        {
          "indexed": true,
          "internalType": "address",
          "name": "account",
          "type": "address"
        },
        {
          "indexed": true,
          "internalType": "address",
          "name": "sender",
          "type": "address"
        }
      ],
      "name": "RoleRevoked",
      "type": "event"
    },
    {
      "anonymous": false,
      "inputs": [
        {
          "indexed": true,
          "internalType": "address",
          "name": "from",
          "type": "address"
        },
        {
          "indexed": true,
          "internalType": "address",
          "name": "to",
          "type": "address"
        },
        {
          "indexed": true,
          "internalType": "uint256",
          "name": "tokenId",
          "type": "uint256"
        }
      ],
      "name": "Transfer",
      "type": "event"
    },
    {
      "inputs": [],
      "name": "DEFAULT_ADMIN_ROLE",
      "outputs": [
        {
          "internalType": "bytes32",
          "name": "",
          "type": "bytes32"
        }
      ],
      "stateMutability": "view",
      "type": "function",
      "constant": true
    },
    {
      "inputs": [],
      "name": "MINTER_ROLE",
      "outputs": [
        {
          "internalType": "bytes32",
          "name": "",
          "type": "bytes32"
        }
      ],
      "stateMutability": "view",
      "type": "function",
      "constant": true
    },
    {
      "inputs": [],
      "name": "READER_ROLE",
      "outputs": [
        {
          "internalType": "bytes32",
          "name": "",
          "type": "bytes32"
        }
      ],
      "stateMutability": "view",
      "type": "function",
      "constant": true
    },
    {
      "inputs": [
        {
          "internalType": "address",
          "name": "to",
          "type": "address"
        },
        {
          "internalType": "uint256",
          "name": "tokenId",
          "type": "uint256"
        }
      ],
      "name": "approve",
      "outputs": [],
      "stateMutability": "nonpayable",
      "type": "function"
    },
    {
      "inputs": [
        {
          "internalType": "address",
          "name": "owner",
          "type": "address"
        }
      ],
      "name": "balanceOf",
      "outputs": [
        {
          "internalType": "uint256",
          "name": "",
          "type": "uint256"
        }
      ],
      "stateMutability": "view",
      "type": "function",
      "constant": true
    },
    {
      "inputs": [
        {
          "internalType": "uint256",
          "name": "tokenId",
          "type": "uint256"
        }
      ],
      "name": "getApproved",
      "outputs": [
        {
          "internalType": "address",
          "name": "",
          "type": "address"
        }
      ],
      "stateMutability": "view",
      "type": "function",
      "constant": true
    },
    {
      "inputs": [
        {
          "internalType": "bytes32",
          "name": "role",
          "type": "bytes32"
        }
      ],
      "name": "getRoleAdmin",
      "outputs": [
        {
          "internalType": "bytes32",
          "name": "",
          "type": "bytes32"
        }
      ],
      "stateMutability": "view",
      "type": "function",
      "constant": true
    },
    {
      "inputs": [
        {
          "internalType": "bytes32",
          "name": "role",
          "type": "bytes32"
        },
        {
          "internalType": "uint256",
          "name": "index",
          "type": "uint256"
        }
      ],
      "name": "getRoleMember",
      "outputs": [
        {
          "internalType": "address",
          "name": "",
          "type": "address"
        }
      ],
      "stateMutability": "view",
      "type": "function",
      "constant": true
    },
    {
      "inputs": [
        {
          "internalType": "bytes32",
          "name": "role",
          "type": "bytes32"
        }
      ],
      "name": "getRoleMemberCount",
      "outputs": [
        {
          "internalType": "uint256",
          "name": "",
          "type": "uint256"
        }
      ],
      "stateMutability": "view",
      "type": "function",
      "constant": true
    },
    {
      "inputs": [
        {
          "internalType": "bytes32",
          "name": "role",
          "type": "bytes32"
        },
        {
          "internalType": "address",
          "name": "account",
          "type": "address"
        }
      ],
      "name": "grantRole",
      "outputs": [],
      "stateMutability": "nonpayable",
      "type": "function"
    },
    {
      "inputs": [
        {
          "internalType": "bytes32",
          "name": "role",
          "type": "bytes32"
        },
        {
          "internalType": "address",
          "name": "account",
          "type": "address"
        }
      ],
      "name": "hasRole",
      "outputs": [
        {
          "internalType": "bool",
          "name": "",
          "type": "bool"
        }
      ],
      "stateMutability": "view",
      "type": "function",
      "constant": true
    },
    {
      "inputs": [
        {
          "internalType": "address",
          "name": "owner",
          "type": "address"
        },
        {
          "internalType": "address",
          "name": "operator",
          "type": "address"
        }
      ],
      "name": "isApprovedForAll",
      "outputs": [
        {
          "internalType": "bool",
          "name": "",
          "type": "bool"
        }
      ],
      "stateMutability": "view",
      "type": "function",
      "constant": true
    },
    {
      "inputs": [],
      "name": "name",
      "outputs": [
        {
          "internalType": "string",
          "name": "",
          "type": "string"
        }
      ],
      "stateMutability": "view",
      "type": "function",
      "constant": true
    },
    {
      "inputs": [
        {
          "internalType": "uint256",
          "name": "tokenId",
          "type": "uint256"
        }
      ],
      "name": "ownerOf",
      "outputs": [
        {
          "internalType": "address",
          "name": "",
          "type": "address"
        }
      ],
      "stateMutability": "view",
      "type": "function",
      "constant": true
    },
    {
      "inputs": [
        {
          "internalType": "bytes32",
          "name": "role",
          "type": "bytes32"
        },
        {
          "internalType": "address",
          "name": "account",
          "type": "address"
        }
      ],
      "name": "renounceRole",
      "outputs": [],
      "stateMutability": "nonpayable",
      "type": "function"
    },
    {
      "inputs": [
        {
          "internalType": "bytes32",
          "name": "role",
          "type": "bytes32"
        },
        {
          "internalType": "address",
          "name": "account",
          "type": "address"
        }
      ],
      "name": "revokeRole",
      "outputs": [],
      "stateMutability": "nonpayable",
      "type": "function"
    },
    {
      "inputs": [
        {
          "internalType": "address",
          "name": "from",
          "type": "address"
        },
        {
          "internalType": "address",
          "name": "to",
          "type": "address"
        },
        {
          "internalType": "uint256",
          "name": "tokenId",
          "type": "uint256"
        }
      ],
      "name": "safeTransferFrom",
      "outputs": [],
      "stateMutability": "nonpayable",
      "type": "function"
    },
    {
      "inputs": [
        {
          "internalType": "address",
          "name": "from",
          "type": "address"
        },
        {
          "internalType": "address",
          "name": "to",
          "type": "address"
        },
        {
          "internalType": "uint256",
          "name": "tokenId",
          "type": "uint256"
        },
        {
          "internalType": "bytes",
          "name": "_data",
          "type": "bytes"
        }
      ],
      "name": "safeTransferFrom",
      "outputs": [],
      "stateMutability": "nonpayable",
      "type": "function"
    },
    {
      "inputs": [
        {
          "internalType": "address",
          "name": "operator",
          "type": "address"
        },
        {
          "internalType": "bool",
          "name": "approved",
          "type": "bool"
        }
      ],
      "name": "setApprovalForAll",
      "outputs": [],
      "stateMutability": "nonpayable",
      "type": "function"
    },
    {
      "inputs": [],
      "name": "symbol",
      "outputs": [
        {
          "internalType": "string",
          "name": "",
          "type": "string"
        }
      ],
      "stateMutability": "view",
      "type": "function",
      "constant": true
    },
    {
      "inputs": [
        {
          "internalType": "uint256",
          "name": "index",
          "type": "uint256"
        }
      ],
      "name": "tokenByIndex",
      "outputs": [
        {
          "internalType": "uint256",
          "name": "",
          "type": "uint256"
        }
      ],
      "stateMutability": "view",
      "type": "function",
      "constant": true
    },
    {
      "inputs": [
        {
          "internalType": "address",
          "name": "owner",
          "type": "address"
        },
        {
          "internalType": "uint256",
          "name": "index",
          "type": "uint256"
        }
      ],
      "name": "tokenOfOwnerByIndex",
      "outputs": [
        {
          "internalType": "uint256",
          "name": "",
          "type": "uint256"
        }
      ],
      "stateMutability": "view",
      "type": "function",
      "constant": true
    },
    {
      "inputs": [],
      "name": "totalSupply",
      "outputs": [
        {
          "internalType": "uint256",
          "name": "",
          "type": "uint256"
        }
      ],
      "stateMutability": "view",
      "type": "function",
      "constant": true
    },
    {
      "inputs": [
        {
          "internalType": "address",
          "name": "from",
          "type": "address"
        },
        {
          "internalType": "address",
          "name": "to",
          "type": "address"
        },
        {
          "internalType": "uint256",
          "name": "tokenId",
          "type": "uint256"
        }
      ],
      "name": "transferFrom",
      "outputs": [],
      "stateMutability": "nonpayable",
      "type": "function"
    },
    {
      "inputs": [
        {
          "internalType": "address",
          "name": "_to",
          "type": "address"
        },
        {
          "internalType": "uint256",
          "name": "_tokenId",
          "type": "uint256"
        },
        {
          "internalType": "string",
          "name": "_tokenURI",
          "type": "string"
        }
      ],
      "name": "mintNewTokenTo",
      "outputs": [],
      "stateMutability": "nonpayable",
      "type": "function"
    },
    {
      "inputs": [
        {
          "internalType": "uint256",
          "name": "tokenId",
          "type": "uint256"
        }
      ],
      "name": "tokenURI",
      "outputs": [
        {
          "internalType": "string",
          "name": "",
          "type": "string"
        }
      ],
      "stateMutability": "view",
      "type": "function",
      "constant": true
    },
    {
      "inputs": [
        {
          "internalType": "address",
          "name": "consortiumUser",
          "type": "address"
        },
        {
          "internalType": "string",
          "name": "stokenURI",
          "type": "string"
        }
      ],
      "name": "mintAndSetURI",
      "outputs": [
        {
          "internalType": "uint256",
          "name": "",
          "type": "uint256"
        }
      ],
      "stateMutability": "nonpayable",
      "type": "function"
    },
    {
      "inputs": [
        {
          "internalType": "address",
          "name": "to",
          "type": "address"
        }
      ],
      "name": "mint",
      "outputs": [],
      "stateMutability": "nonpayable",
      "type": "function"
    },
    {
      "inputs": [
        {
          "internalType": "bytes4",
          "name": "interfaceId",
          "type": "bytes4"
        }
      ],
      "name": "supportsInterface",
      "outputs": [
        {
          "internalType": "bool",
          "name": "",
          "type": "bool"
        }
      ],
      "stateMutability": "view",
      "type": "function",
      "constant": true
    }
  ],
  "bytecode": "0x60806040523480156200001157600080fd5b5060405162004d8f38038062004d8f8339818101604052810190620000379190620004b8565b82828160029080519060200190620000519291906200038a565b5080600390805190602001906200006a9291906200038a565b50505080600e9080519060200190620000859291906200038a565b50620000aa6000801b6200009e620000f460201b60201c565b620000fc60201b60201c565b620000eb7f9f2df0fed2c77648de5860a4cc508cd0818c85b8b8a1ab4ceeef8d981c8956a6620000df620000f460201b60201c565b620000fc60201b60201c565b505050620006f5565b600033905090565b6200011382826200014460201b620011911760201c565b6200013f81600160008581526020019081526020016000206200015a60201b6200119f1790919060201c565b505050565b6200015682826200019260201b60201c565b5050565b60006200018a836000018373ffffffffffffffffffffffffffffffffffffffff1660001b6200028360201b60201c565b905092915050565b620001a48282620002fd60201b60201c565b6200027f57600160008084815260200190815260200160002060000160008373ffffffffffffffffffffffffffffffffffffffff1673ffffffffffffffffffffffffffffffffffffffff16815260200190815260200160002060006101000a81548160ff02191690831515021790555062000224620000f460201b60201c565b73ffffffffffffffffffffffffffffffffffffffff168173ffffffffffffffffffffffffffffffffffffffff16837f2f8788117e7eff1d82e926ec794901d17c78024a50270940304540a733656f0d60405160405180910390a45b5050565b60006200029783836200036760201b60201c565b620002f2578260000182908060018154018082558091505060019003906000526020600020016000909190919091505582600001805490508360010160008481526020019081526020016000208190555060019050620002f7565b600090505b92915050565b600080600084815260200190815260200160002060000160008373ffffffffffffffffffffffffffffffffffffffff1673ffffffffffffffffffffffffffffffffffffffff16815260200190815260200160002060009054906101000a900460ff16905092915050565b600080836001016000848152602001908152602001600020541415905092915050565b828054620003989062000606565b90600052602060002090601f016020900481019282620003bc576000855562000408565b82601f10620003d757805160ff191683800117855562000408565b8280016001018555821562000408579182015b8281111562000407578251825591602001919060010190620003ea565b5b5090506200041791906200041b565b5090565b5b80821115620004365760008160009055506001016200041c565b5090565b6000620004516200044b846200059a565b62000571565b90508281526020810184848401111562000470576200046f620006d5565b5b6200047d848285620005d0565b509392505050565b600082601f8301126200049d576200049c620006d0565b5b8151620004af8482602086016200043a565b91505092915050565b600080600060608486031215620004d457620004d3620006df565b5b600084015167ffffffffffffffff811115620004f557620004f4620006da565b5b620005038682870162000485565b935050602084015167ffffffffffffffff811115620005275762000526620006da565b5b620005358682870162000485565b925050604084015167ffffffffffffffff811115620005595762000558620006da565b5b620005678682870162000485565b9150509250925092565b60006200057d62000590565b90506200058b82826200063c565b919050565b6000604051905090565b600067ffffffffffffffff821115620005b857620005b7620006a1565b5b620005c382620006e4565b9050602081019050919050565b60005b83811015620005f0578082015181840152602081019050620005d3565b8381111562000600576000848401525b50505050565b600060028204905060018216806200061f57607f821691505b6020821081141562000636576200063562000672565b5b50919050565b6200064782620006e4565b810181811067ffffffffffffffff82111715620006695762000668620006a1565b5b80604052505050565b7f4e487b7100000000000000000000000000000000000000000000000000000000600052602260045260246000fd5b7f4e487b7100000000000000000000000000000000000000000000000000000000600052604160045260246000fd5b600080fd5b600080fd5b600080fd5b600080fd5b6000601f19601f8301169050919050565b61468a80620007056000396000f3fe608060405234801561001057600080fd5b50600436106101cf5760003560e01c8063624e6cc011610104578063a217fddf116100a2578063ca15c87311610071578063ca15c87314610576578063d5391393146105a6578063d547741f146105c4578063e985e9c5146105e0576101cf565b8063a217fddf146104f0578063a22cb4651461050e578063b88d4fde1461052a578063c87b56dd14610546576101cf565b806370a08231116100de57806370a08231146104425780639010d07c1461047257806391d14854146104a257806395d89b41146104d2576101cf565b8063624e6cc0146103c65780636352211e146103f65780636a62784214610426576101cf565b8063248a9ca31161017157806336568abe1161014b57806336568abe1461034057806342842e0e1461035c578063458c4458146103785780634f6ccce714610396576101cf565b8063248a9ca3146102c45780632f2ff15d146102f45780632f745c5914610310576101cf565b8063095ea7b3116101ad578063095ea7b31461025257806318160ddd1461026e5780631ba1137b1461028c57806323b872dd146102a8576101cf565b806301ffc9a7146101d457806306fdde0314610204578063081812fc14610222575b600080fd5b6101ee60048036038101906101e99190613264565b610610565b6040516101fb91906137b4565b60405180910390f35b61020c610622565b60405161021991906137ea565b60405180910390f35b61023c600480360381019061023791906132be565b6106b4565b604051610249919061374d565b60405180910390f35b61026c60048036038101906102679190613108565b610739565b005b610276610851565b6040516102839190613aac565b60405180910390f35b6102a660048036038101906102a19190613148565b61085e565b005b6102c260048036038101906102bd9190612f96565b610877565b005b6102de60048036038101906102d991906131b7565b6108d7565b6040516102eb91906137cf565b60405180910390f35b61030e600480360381019061030991906131e4565b6108f6565b005b61032a60048036038101906103259190613108565b61092a565b6040516103379190613aac565b60405180910390f35b61035a600480360381019061035591906131e4565b6109cf565b005b61037660048036038101906103719190612f96565b610a03565b005b610380610a23565b60405161038d91906137cf565b60405180910390f35b6103b060048036038101906103ab91906132be565b610a47565b6040516103bd9190613aac565b60405180910390f35b6103e060048036038101906103db91906130ac565b610ab8565b6040516103ed9190613aac565b60405180910390f35b610410600480360381019061040b91906132be565b610b60565b60405161041d919061374d565b60405180910390f35b610440600480360381019061043b9190612f29565b610c12565b005b61045c60048036038101906104579190612f29565b610ca2565b6040516104699190613aac565b60405180910390f35b61048c60048036038101906104879190613224565b610d5a565b604051610499919061374d565b60405180910390f35b6104bc60048036038101906104b791906131e4565b610d89565b6040516104c991906137b4565b60405180910390f35b6104da610df3565b6040516104e791906137ea565b60405180910390f35b6104f8610e85565b60405161050591906137cf565b60405180910390f35b6105286004803603810190610523919061306c565b610e8c565b005b610544600480360381019061053f9190612fe9565b61100d565b005b610560600480360381019061055b91906132be565b61106f565b60405161056d91906137ea565b60405180910390f35b610590600480360381019061058b91906131b7565b611081565b60405161059d9190613aac565b60405180910390f35b6105ae6110a5565b6040516105bb91906137cf565b60405180910390f35b6105de60048036038101906105d991906131e4565b6110c9565b005b6105fa60048036038101906105f59190612f56565b6110fd565b60405161060791906137b4565b60405180910390f35b600061061b826111cf565b9050919050565b60606002805461063190613d90565b80601f016020809104026020016040519081016040528092919081815260200182805461065d90613d90565b80156106aa5780601f1061067f576101008083540402835291602001916106aa565b820191906000526020600020905b81548152906001019060200180831161068d57829003601f168201915b5050505050905090565b60006106bf82611249565b6106fe576040517f08c379a00000000000000000000000000000000000000000000000000000000081526004016106f5906139ac565b60405180910390fd5b6006600083815260200190815260200160002060009054906101000a900473ffffffffffffffffffffffffffffffffffffffff169050919050565b600061074482610b60565b90508073ffffffffffffffffffffffffffffffffffffffff168373ffffffffffffffffffffffffffffffffffffffff1614156107b5576040517f08c379a00000000000000000000000000000000000000000000000000000000081526004016107ac90613a0c565b60405180910390fd5b8073ffffffffffffffffffffffffffffffffffffffff166107d46112b5565b73ffffffffffffffffffffffffffffffffffffffff1614806108035750610802816107fd6112b5565b6110fd565b5b610842576040517f08c379a0000000000000000000000000000000000000000000000000000000008152600401610839906138ec565b60405180910390fd5b61084c83836112bd565b505050565b6000600b80549050905090565b6108688383611376565b6108728282611544565b505050565b6108886108826112b5565b826115b8565b6108c7576040517f08c379a00000000000000000000000000000000000000000000000000000000081526004016108be90613a2c565b60405180910390fd5b6108d2838383611696565b505050565b6000806000838152602001908152602001600020600101549050919050565b61090082826118f2565b610925816001600085815260200190815260200160002061119f90919063ffffffff16565b505050565b600061093583610ca2565b8210610976576040517f08c379a000000000000000000000000000000000000000000000000000000000815260040161096d9061382c565b60405180910390fd5b600960008473ffffffffffffffffffffffffffffffffffffffff1673ffffffffffffffffffffffffffffffffffffffff168152602001908152602001600020600083815260200190815260200160002054905092915050565b6109d9828261191b565b6109fe816001600085815260200190815260200160002061199e90919063ffffffff16565b505050565b610a1e8383836040518060200160405280600081525061100d565b505050565b7f879ce0d4bfd332649ca3552efe772a38d64a315eb70ab69689fd309c735946b581565b6000610a51610851565b8210610a92576040517f08c379a0000000000000000000000000000000000000000000000000000000008152600401610a8990613a4c565b60405180910390fd5b600b8281548110610aa657610aa5613f29565b5b90600052602060002001549050919050565b6000610aeb7f9f2df0fed2c77648de5860a4cc508cd0818c85b8b8a1ab4ceeef8d981c8956a6610ae66112b5565b610d89565b610b2a576040517f08c379a0000000000000000000000000000000000000000000000000000000008152600401610b2190613a6c565b60405180910390fd5b6000610b36600d6119ce565b9050610b428482611376565b610b4c8184611544565b610b56600d6119dc565b8091505092915050565b6000806004600084815260200190815260200160002060009054906101000a900473ffffffffffffffffffffffffffffffffffffffff169050600073ffffffffffffffffffffffffffffffffffffffff168173ffffffffffffffffffffffffffffffffffffffff161415610c09576040517f08c379a0000000000000000000000000000000000000000000000000000000008152600401610c009061392c565b60405180910390fd5b80915050919050565b610c437f9f2df0fed2c77648de5860a4cc508cd0818c85b8b8a1ab4ceeef8d981c8956a6610c3e6112b5565b610d89565b610c82576040517f08c379a0000000000000000000000000000000000000000000000000000000008152600401610c7990613a6c565b60405180910390fd5b610c9581610c90600d6119ce565b611376565b610c9f600d6119dc565b50565b60008073ffffffffffffffffffffffffffffffffffffffff168273ffffffffffffffffffffffffffffffffffffffff161415610d13576040517f08c379a0000000000000000000000000000000000000000000000000000000008152600401610d0a9061390c565b60405180910390fd5b600560008373ffffffffffffffffffffffffffffffffffffffff1673ffffffffffffffffffffffffffffffffffffffff168152602001908152602001600020549050919050565b6000610d8182600160008681526020019081526020016000206119f290919063ffffffff16565b905092915050565b600080600084815260200190815260200160002060000160008373ffffffffffffffffffffffffffffffffffffffff1673ffffffffffffffffffffffffffffffffffffffff16815260200190815260200160002060009054906101000a900460ff16905092915050565b606060038054610e0290613d90565b80601f0160208091040260200160405190810160405280929190818152602001828054610e2e90613d90565b8015610e7b5780601f10610e5057610100808354040283529160200191610e7b565b820191906000526020600020905b815481529060010190602001808311610e5e57829003601f168201915b5050505050905090565b6000801b81565b610e946112b5565b73ffffffffffffffffffffffffffffffffffffffff168273ffffffffffffffffffffffffffffffffffffffff161415610f02576040517f08c379a0000000000000000000000000000000000000000000000000000000008152600401610ef9906138ac565b60405180910390fd5b8060076000610f0f6112b5565b73ffffffffffffffffffffffffffffffffffffffff1673ffffffffffffffffffffffffffffffffffffffff16815260200190815260200160002060008473ffffffffffffffffffffffffffffffffffffffff1673ffffffffffffffffffffffffffffffffffffffff16815260200190815260200160002060006101000a81548160ff0219169083151502179055508173ffffffffffffffffffffffffffffffffffffffff16610fbc6112b5565b73ffffffffffffffffffffffffffffffffffffffff167f17307eab39ab6107e8899845ad3d59bd9653f200f220920489ca2b5937696c318360405161100191906137b4565b60405180910390a35050565b61101e6110186112b5565b836115b8565b61105d576040517f08c379a000000000000000000000000000000000000000000000000000000000815260040161105490613a2c565b60405180910390fd5b61106984848484611a0c565b50505050565b606061107a82611a68565b9050919050565b600061109e60016000848152602001908152602001600020611bba565b9050919050565b7f9f2df0fed2c77648de5860a4cc508cd0818c85b8b8a1ab4ceeef8d981c8956a681565b6110d38282611bcf565b6110f8816001600085815260200190815260200160002061199e90919063ffffffff16565b505050565b6000600760008473ffffffffffffffffffffffffffffffffffffffff1673ffffffffffffffffffffffffffffffffffffffff16815260200190815260200160002060008373ffffffffffffffffffffffffffffffffffffffff1673ffffffffffffffffffffffffffffffffffffffff16815260200190815260200160002060009054906101000a900460ff16905092915050565b61119b8282611bf8565b5050565b60006111c7836000018373ffffffffffffffffffffffffffffffffffffffff1660001b611cd8565b905092915050565b60007f780e9d63000000000000000000000000000000000000000000000000000000007bffffffffffffffffffffffffffffffffffffffffffffffffffffffff1916827bffffffffffffffffffffffffffffffffffffffffffffffffffffffff19161480611242575061124182611d48565b5b9050919050565b60008073ffffffffffffffffffffffffffffffffffffffff166004600084815260200190815260200160002060009054906101000a900473ffffffffffffffffffffffffffffffffffffffff1673ffffffffffffffffffffffffffffffffffffffff1614159050919050565b600033905090565b816006600083815260200190815260200160002060006101000a81548173ffffffffffffffffffffffffffffffffffffffff021916908373ffffffffffffffffffffffffffffffffffffffff160217905550808273ffffffffffffffffffffffffffffffffffffffff1661133083610b60565b73ffffffffffffffffffffffffffffffffffffffff167f8c5be1e5ebec7d5bd14f71427d1e84f3dd0314c0f7b2291e5b200ac8c7c3b92560405160405180910390a45050565b600073ffffffffffffffffffffffffffffffffffffffff168273ffffffffffffffffffffffffffffffffffffffff1614156113e6576040517f08c379a00000000000000000000000000000000000000000000000000000000081526004016113dd9061396c565b60405180910390fd5b6113ef81611249565b1561142f576040517f08c379a00000000000000000000000000000000000000000000000000000000081526004016114269061386c565b60405180910390fd5b61143b60008383611e2a565b6001600560008473ffffffffffffffffffffffffffffffffffffffff1673ffffffffffffffffffffffffffffffffffffffff168152602001908152602001600020600082825461148b9190613b91565b92505081905550816004600083815260200190815260200160002060006101000a81548173ffffffffffffffffffffffffffffffffffffffff021916908373ffffffffffffffffffffffffffffffffffffffff160217905550808273ffffffffffffffffffffffffffffffffffffffff16600073ffffffffffffffffffffffffffffffffffffffff167fddf252ad1be2c89b69c2b068fc378daa952ba7f163c4a11628f55a4df523b3ef60405160405180910390a45050565b61154d82611249565b61158c576040517f08c379a00000000000000000000000000000000000000000000000000000000081526004016115839061394c565b60405180910390fd5b806008600084815260200190815260200160002090805190602001906115b3929190612d28565b505050565b60006115c382611249565b611602576040517f08c379a00000000000000000000000000000000000000000000000000000000081526004016115f9906138cc565b60405180910390fd5b600061160d83610b60565b90508073ffffffffffffffffffffffffffffffffffffffff168473ffffffffffffffffffffffffffffffffffffffff16148061167c57508373ffffffffffffffffffffffffffffffffffffffff16611664846106b4565b73ffffffffffffffffffffffffffffffffffffffff16145b8061168d575061168c81856110fd565b5b91505092915050565b8273ffffffffffffffffffffffffffffffffffffffff166116b682610b60565b73ffffffffffffffffffffffffffffffffffffffff161461170c576040517f08c379a0000000000000000000000000000000000000000000000000000000008152600401611703906139cc565b60405180910390fd5b600073ffffffffffffffffffffffffffffffffffffffff168273ffffffffffffffffffffffffffffffffffffffff16141561177c576040517f08c379a00000000000000000000000000000000000000000000000000000000081526004016117739061388c565b60405180910390fd5b611787838383611e2a565b6117926000826112bd565b6001600560008573ffffffffffffffffffffffffffffffffffffffff1673ffffffffffffffffffffffffffffffffffffffff16815260200190815260200160002060008282546117e29190613c72565b925050819055506001600560008473ffffffffffffffffffffffffffffffffffffffff1673ffffffffffffffffffffffffffffffffffffffff16815260200190815260200160002060008282546118399190613b91565b92505081905550816004600083815260200190815260200160002060006101000a81548173ffffffffffffffffffffffffffffffffffffffff021916908373ffffffffffffffffffffffffffffffffffffffff160217905550808273ffffffffffffffffffffffffffffffffffffffff168473ffffffffffffffffffffffffffffffffffffffff167fddf252ad1be2c89b69c2b068fc378daa952ba7f163c4a11628f55a4df523b3ef60405160405180910390a4505050565b6118fb826108d7565b61190c816119076112b5565b611e3a565b6119168383611bf8565b505050565b6119236112b5565b73ffffffffffffffffffffffffffffffffffffffff168173ffffffffffffffffffffffffffffffffffffffff1614611990576040517f08c379a000000000000000000000000000000000000000000000000000000000815260040161198790613a8c565b60405180910390fd5b61199a8282611ed7565b5050565b60006119c6836000018373ffffffffffffffffffffffffffffffffffffffff1660001b611fb8565b905092915050565b600081600001549050919050565b6001816000016000828254019250508190555050565b6000611a0183600001836120cc565b60001c905092915050565b611a17848484611696565b611a23848484846120f7565b611a62576040517f08c379a0000000000000000000000000000000000000000000000000000000008152600401611a599061384c565b60405180910390fd5b50505050565b6060611a7382611249565b611ab2576040517f08c379a0000000000000000000000000000000000000000000000000000000008152600401611aa99061398c565b60405180910390fd5b6000600860008481526020019081526020016000208054611ad290613d90565b80601f0160208091040260200160405190810160405280929190818152602001828054611afe90613d90565b8015611b4b5780601f10611b2057610100808354040283529160200191611b4b565b820191906000526020600020905b815481529060010190602001808311611b2e57829003601f168201915b505050505090506000611b5c61228e565b9050600081511415611b72578192505050611bb5565b600082511115611ba7578082604051602001611b8f9291906136ef565b60405160208183030381529060405292505050611bb5565b611bb084612320565b925050505b919050565b6000611bc8826000016123c7565b9050919050565b611bd8826108d7565b611be981611be46112b5565b611e3a565b611bf38383611ed7565b505050565b611c028282610d89565b611cd457600160008084815260200190815260200160002060000160008373ffffffffffffffffffffffffffffffffffffffff1673ffffffffffffffffffffffffffffffffffffffff16815260200190815260200160002060006101000a81548160ff021916908315150217905550611c796112b5565b73ffffffffffffffffffffffffffffffffffffffff168173ffffffffffffffffffffffffffffffffffffffff16837f2f8788117e7eff1d82e926ec794901d17c78024a50270940304540a733656f0d60405160405180910390a45b5050565b6000611ce483836123d8565b611d3d578260000182908060018154018082558091505060019003906000526020600020016000909190919091505582600001805490508360010160008481526020019081526020016000208190555060019050611d42565b600090505b92915050565b60007f80ac58cd000000000000000000000000000000000000000000000000000000007bffffffffffffffffffffffffffffffffffffffffffffffffffffffff1916827bffffffffffffffffffffffffffffffffffffffffffffffffffffffff19161480611e1357507f5b5e139f000000000000000000000000000000000000000000000000000000007bffffffffffffffffffffffffffffffffffffffffffffffffffffffff1916827bffffffffffffffffffffffffffffffffffffffffffffffffffffffff1916145b80611e235750611e22826123fb565b5b9050919050565b611e35838383612475565b505050565b611e448282610d89565b611ed357611e698173ffffffffffffffffffffffffffffffffffffffff166014612589565b611e778360001c6020612589565b604051602001611e88929190613713565b6040516020818303038152906040526040517f08c379a0000000000000000000000000000000000000000000000000000000008152600401611eca91906137ea565b60405180910390fd5b5050565b611ee18282610d89565b15611fb457600080600084815260200190815260200160002060000160008373ffffffffffffffffffffffffffffffffffffffff1673ffffffffffffffffffffffffffffffffffffffff16815260200190815260200160002060006101000a81548160ff021916908315150217905550611f596112b5565b73ffffffffffffffffffffffffffffffffffffffff168173ffffffffffffffffffffffffffffffffffffffff16837ff6391f5c32d9c69d2a47ea670b442974b53935d1edc7fd64eb21e047a839171b60405160405180910390a45b5050565b600080836001016000848152602001908152602001600020549050600081146120c0576000600182611fea9190613c72565b90506000600186600001805490506120029190613c72565b905081811461207157600086600001828154811061202357612022613f29565b5b906000526020600020015490508087600001848154811061204757612046613f29565b5b90600052602060002001819055508387600101600083815260200190815260200160002081905550505b8560000180548061208557612084613efa565b5b6001900381819060005260206000200160009055905585600101600086815260200190815260200160002060009055600193505050506120c6565b60009150505b92915050565b60008260000182815481106120e4576120e3613f29565b5b9060005260206000200154905092915050565b60006121188473ffffffffffffffffffffffffffffffffffffffff166127c5565b15612281578373ffffffffffffffffffffffffffffffffffffffff1663150b7a026121416112b5565b8786866040518563ffffffff1660e01b81526004016121639493929190613768565b602060405180830381600087803b15801561217d57600080fd5b505af19250505080156121ae57506040513d601f19601f820116820180604052508101906121ab9190613291565b60015b612231573d80600081146121de576040519150601f19603f3d011682016040523d82523d6000602084013e6121e3565b606091505b50600081511415612229576040517f08c379a00000000000000000000000000000000000000000000000000000000081526004016122209061384c565b60405180910390fd5b805181602001fd5b63150b7a0260e01b7bffffffffffffffffffffffffffffffffffffffffffffffffffffffff1916817bffffffffffffffffffffffffffffffffffffffffffffffffffffffff191614915050612286565b600190505b949350505050565b6060600e805461229d90613d90565b80601f01602080910402602001604051908101604052809291908181526020018280546122c990613d90565b80156123165780601f106122eb57610100808354040283529160200191612316565b820191906000526020600020905b8154815290600101906020018083116122f957829003601f168201915b5050505050905090565b606061232b82611249565b61236a576040517f08c379a0000000000000000000000000000000000000000000000000000000008152600401612361906139ec565b60405180910390fd5b600061237461228e565b9050600081511161239457604051806020016040528060008152506123bf565b8061239e846127d8565b6040516020016123af9291906136ef565b6040516020818303038152906040525b915050919050565b600081600001805490509050919050565b600080836001016000848152602001908152602001600020541415905092915050565b60007f5a05180f000000000000000000000000000000000000000000000000000000007bffffffffffffffffffffffffffffffffffffffffffffffffffffffff1916827bffffffffffffffffffffffffffffffffffffffffffffffffffffffff1916148061246e575061246d82612939565b5b9050919050565b6124808383836129b3565b600073ffffffffffffffffffffffffffffffffffffffff168373ffffffffffffffffffffffffffffffffffffffff1614156124c3576124be816129b8565b612502565b8173ffffffffffffffffffffffffffffffffffffffff168373ffffffffffffffffffffffffffffffffffffffff1614612501576125008382612a01565b5b5b600073ffffffffffffffffffffffffffffffffffffffff168273ffffffffffffffffffffffffffffffffffffffff1614156125455761254081612b6e565b612584565b8273ffffffffffffffffffffffffffffffffffffffff168273ffffffffffffffffffffffffffffffffffffffff1614612583576125828282612c3f565b5b5b505050565b60606000600283600261259c9190613c18565b6125a69190613b91565b67ffffffffffffffff8111156125bf576125be613f58565b5b6040519080825280601f01601f1916602001820160405280156125f15781602001600182028036833780820191505090505b5090507f30000000000000000000000000000000000000000000000000000000000000008160008151811061262957612628613f29565b5b60200101907effffffffffffffffffffffffffffffffffffffffffffffffffffffffffffff1916908160001a9053507f78000000000000000000000000000000000000000000000000000000000000008160018151811061268d5761268c613f29565b5b60200101907effffffffffffffffffffffffffffffffffffffffffffffffffffffffffffff1916908160001a905350600060018460026126cd9190613c18565b6126d79190613b91565b90505b6001811115612777577f3031323334353637383961626364656600000000000000000000000000000000600f86166010811061271957612718613f29565b5b1a60f81b8282815181106127305761272f613f29565b5b60200101907effffffffffffffffffffffffffffffffffffffffffffffffffffffffffffff1916908160001a905350600485901c94508061277090613d66565b90506126da565b50600084146127bb576040517f08c379a00000000000000000000000000000000000000000000000000000000081526004016127b29061380c565b60405180910390fd5b8091505092915050565b600080823b905060008111915050919050565b60606000821415612820576040518060400160405280600181526020017f30000000000000000000000000000000000000000000000000000000000000008152509050612934565b600082905060005b6000821461285257808061283b90613df3565b915050600a8261284b9190613be7565b9150612828565b60008167ffffffffffffffff81111561286e5761286d613f58565b5b6040519080825280601f01601f1916602001820160405280156128a05781602001600182028036833780820191505090505b5090505b6000851461292d576001826128b99190613c72565b9150600a856128c89190613e3c565b60306128d49190613b91565b60f81b8183815181106128ea576128e9613f29565b5b60200101907effffffffffffffffffffffffffffffffffffffffffffffffffffffffffffff1916908160001a905350600a856129269190613be7565b94506128a4565b8093505050505b919050565b60007f7965db0b000000000000000000000000000000000000000000000000000000007bffffffffffffffffffffffffffffffffffffffffffffffffffffffff1916827bffffffffffffffffffffffffffffffffffffffffffffffffffffffff191614806129ac57506129ab82612cbe565b5b9050919050565b505050565b600b80549050600c600083815260200190815260200160002081905550600b81908060018154018082558091505060019003906000526020600020016000909190919091505550565b60006001612a0e84610ca2565b612a189190613c72565b90506000600a6000848152602001908152602001600020549050818114612afd576000600960008673ffffffffffffffffffffffffffffffffffffffff1673ffffffffffffffffffffffffffffffffffffffff168152602001908152602001600020600084815260200190815260200160002054905080600960008773ffffffffffffffffffffffffffffffffffffffff1673ffffffffffffffffffffffffffffffffffffffff16815260200190815260200160002060008481526020019081526020016000208190555081600a600083815260200190815260200160002081905550505b600a600084815260200190815260200160002060009055600960008573ffffffffffffffffffffffffffffffffffffffff1673ffffffffffffffffffffffffffffffffffffffff16815260200190815260200160002060008381526020019081526020016000206000905550505050565b60006001600b80549050612b829190613c72565b90506000600c60008481526020019081526020016000205490506000600b8381548110612bb257612bb1613f29565b5b9060005260206000200154905080600b8381548110612bd457612bd3613f29565b5b906000526020600020018190555081600c600083815260200190815260200160002081905550600c600085815260200190815260200160002060009055600b805480612c2357612c22613efa565b5b6001900381819060005260206000200160009055905550505050565b6000612c4a83610ca2565b905081600960008573ffffffffffffffffffffffffffffffffffffffff1673ffffffffffffffffffffffffffffffffffffffff16815260200190815260200160002060008381526020019081526020016000208190555080600a600084815260200190815260200160002081905550505050565b60007f01ffc9a7000000000000000000000000000000000000000000000000000000007bffffffffffffffffffffffffffffffffffffffffffffffffffffffff1916827bffffffffffffffffffffffffffffffffffffffffffffffffffffffff1916149050919050565b828054612d3490613d90565b90600052602060002090601f016020900481019282612d565760008555612d9d565b82601f10612d6f57805160ff1916838001178555612d9d565b82800160010185558215612d9d579182015b82811115612d9c578251825591602001919060010190612d81565b5b509050612daa9190612dae565b5090565b5b80821115612dc7576000816000905550600101612daf565b5090565b6000612dde612dd984613aec565b613ac7565b905082815260208101848484011115612dfa57612df9613f8c565b5b612e05848285613d24565b509392505050565b6000612e20612e1b84613b1d565b613ac7565b905082815260208101848484011115612e3c57612e3b613f8c565b5b612e47848285613d24565b509392505050565b600081359050612e5e816145e1565b92915050565b600081359050612e73816145f8565b92915050565b600081359050612e888161460f565b92915050565b600081359050612e9d81614626565b92915050565b600081519050612eb281614626565b92915050565b600082601f830112612ecd57612ecc613f87565b5b8135612edd848260208601612dcb565b91505092915050565b600082601f830112612efb57612efa613f87565b5b8135612f0b848260208601612e0d565b91505092915050565b600081359050612f238161463d565b92915050565b600060208284031215612f3f57612f3e613f96565b5b6000612f4d84828501612e4f565b91505092915050565b60008060408385031215612f6d57612f6c613f96565b5b6000612f7b85828601612e4f565b9250506020612f8c85828601612e4f565b9150509250929050565b600080600060608486031215612faf57612fae613f96565b5b6000612fbd86828701612e4f565b9350506020612fce86828701612e4f565b9250506040612fdf86828701612f14565b9150509250925092565b6000806000806080858703121561300357613002613f96565b5b600061301187828801612e4f565b945050602061302287828801612e4f565b935050604061303387828801612f14565b925050606085013567ffffffffffffffff81111561305457613053613f91565b5b61306087828801612eb8565b91505092959194509250565b6000806040838503121561308357613082613f96565b5b600061309185828601612e4f565b92505060206130a285828601612e64565b9150509250929050565b600080604083850312156130c3576130c2613f96565b5b60006130d185828601612e4f565b925050602083013567ffffffffffffffff8111156130f2576130f1613f91565b5b6130fe85828601612ee6565b9150509250929050565b6000806040838503121561311f5761311e613f96565b5b600061312d85828601612e4f565b925050602061313e85828601612f14565b9150509250929050565b60008060006060848603121561316157613160613f96565b5b600061316f86828701612e4f565b935050602061318086828701612f14565b925050604084013567ffffffffffffffff8111156131a1576131a0613f91565b5b6131ad86828701612ee6565b9150509250925092565b6000602082840312156131cd576131cc613f96565b5b60006131db84828501612e79565b91505092915050565b600080604083850312156131fb576131fa613f96565b5b600061320985828601612e79565b925050602061321a85828601612e4f565b9150509250929050565b6000806040838503121561323b5761323a613f96565b5b600061324985828601612e79565b925050602061325a85828601612f14565b9150509250929050565b60006020828403121561327a57613279613f96565b5b600061328884828501612e8e565b91505092915050565b6000602082840312156132a7576132a6613f96565b5b60006132b584828501612ea3565b91505092915050565b6000602082840312156132d4576132d3613f96565b5b60006132e284828501612f14565b91505092915050565b6132f481613ca6565b82525050565b61330381613cb8565b82525050565b61331281613cc4565b82525050565b600061332382613b4e565b61332d8185613b64565b935061333d818560208601613d33565b61334681613f9b565b840191505092915050565b600061335c82613b59565b6133668185613b75565b9350613376818560208601613d33565b61337f81613f9b565b840191505092915050565b600061339582613b59565b61339f8185613b86565b93506133af818560208601613d33565b80840191505092915050565b60006133c8602083613b75565b91506133d382613fac565b602082019050919050565b60006133eb602b83613b75565b91506133f682613fd5565b604082019050919050565b600061340e603283613b75565b915061341982614024565b604082019050919050565b6000613431601c83613b75565b915061343c82614073565b602082019050919050565b6000613454602483613b75565b915061345f8261409c565b604082019050919050565b6000613477601983613b75565b9150613482826140eb565b602082019050919050565b600061349a602c83613b75565b91506134a582614114565b604082019050919050565b60006134bd603883613b75565b91506134c882614163565b604082019050919050565b60006134e0602a83613b75565b91506134eb826141b2565b604082019050919050565b6000613503602983613b75565b915061350e82614201565b604082019050919050565b6000613526602e83613b75565b915061353182614250565b604082019050919050565b6000613549602083613b75565b91506135548261429f565b602082019050919050565b600061356c603183613b75565b9150613577826142c8565b604082019050919050565b600061358f602c83613b75565b915061359a82614317565b604082019050919050565b60006135b2602983613b75565b91506135bd82614366565b604082019050919050565b60006135d5602f83613b75565b91506135e0826143b5565b604082019050919050565b60006135f8602183613b75565b915061360382614404565b604082019050919050565b600061361b603183613b75565b915061362682614453565b604082019050919050565b600061363e602c83613b75565b9150613649826144a2565b604082019050919050565b6000613661601783613b86565b915061366c826144f1565b601782019050919050565b6000613684602583613b75565b915061368f8261451a565b604082019050919050565b60006136a7601183613b86565b91506136b282614569565b601182019050919050565b60006136ca602f83613b75565b91506136d582614592565b604082019050919050565b6136e981613d1a565b82525050565b60006136fb828561338a565b9150613707828461338a565b91508190509392505050565b600061371e82613654565b915061372a828561338a565b91506137358261369a565b9150613741828461338a565b91508190509392505050565b600060208201905061376260008301846132eb565b92915050565b600060808201905061377d60008301876132eb565b61378a60208301866132eb565b61379760408301856136e0565b81810360608301526137a98184613318565b905095945050505050565b60006020820190506137c960008301846132fa565b92915050565b60006020820190506137e46000830184613309565b92915050565b600060208201905081810360008301526138048184613351565b905092915050565b60006020820190508181036000830152613825816133bb565b9050919050565b60006020820190508181036000830152613845816133de565b9050919050565b6000602082019050818103600083015261386581613401565b9050919050565b6000602082019050818103600083015261388581613424565b9050919050565b600060208201905081810360008301526138a581613447565b9050919050565b600060208201905081810360008301526138c58161346a565b9050919050565b600060208201905081810360008301526138e58161348d565b9050919050565b60006020820190508181036000830152613905816134b0565b9050919050565b60006020820190508181036000830152613925816134d3565b9050919050565b60006020820190508181036000830152613945816134f6565b9050919050565b6000602082019050818103600083015261396581613519565b9050919050565b600060208201905081810360008301526139858161353c565b9050919050565b600060208201905081810360008301526139a58161355f565b9050919050565b600060208201905081810360008301526139c581613582565b9050919050565b600060208201905081810360008301526139e5816135a5565b9050919050565b60006020820190508181036000830152613a05816135c8565b9050919050565b60006020820190508181036000830152613a25816135eb565b9050919050565b60006020820190508181036000830152613a458161360e565b9050919050565b60006020820190508181036000830152613a6581613631565b9050919050565b60006020820190508181036000830152613a8581613677565b9050919050565b60006020820190508181036000830152613aa5816136bd565b9050919050565b6000602082019050613ac160008301846136e0565b92915050565b6000613ad1613ae2565b9050613add8282613dc2565b919050565b6000604051905090565b600067ffffffffffffffff821115613b0757613b06613f58565b5b613b1082613f9b565b9050602081019050919050565b600067ffffffffffffffff821115613b3857613b37613f58565b5b613b4182613f9b565b9050602081019050919050565b600081519050919050565b600081519050919050565b600082825260208201905092915050565b600082825260208201905092915050565b600081905092915050565b6000613b9c82613d1a565b9150613ba783613d1a565b9250827fffffffffffffffffffffffffffffffffffffffffffffffffffffffffffffffff03821115613bdc57613bdb613e6d565b5b828201905092915050565b6000613bf282613d1a565b9150613bfd83613d1a565b925082613c0d57613c0c613e9c565b5b828204905092915050565b6000613c2382613d1a565b9150613c2e83613d1a565b9250817fffffffffffffffffffffffffffffffffffffffffffffffffffffffffffffffff0483118215151615613c6757613c66613e6d565b5b828202905092915050565b6000613c7d82613d1a565b9150613c8883613d1a565b925082821015613c9b57613c9a613e6d565b5b828203905092915050565b6000613cb182613cfa565b9050919050565b60008115159050919050565b6000819050919050565b60007fffffffff0000000000000000000000000000000000000000000000000000000082169050919050565b600073ffffffffffffffffffffffffffffffffffffffff82169050919050565b6000819050919050565b82818337600083830152505050565b60005b83811015613d51578082015181840152602081019050613d36565b83811115613d60576000848401525b50505050565b6000613d7182613d1a565b91506000821415613d8557613d84613e6d565b5b600182039050919050565b60006002820490506001821680613da857607f821691505b60208210811415613dbc57613dbb613ecb565b5b50919050565b613dcb82613f9b565b810181811067ffffffffffffffff82111715613dea57613de9613f58565b5b80604052505050565b6000613dfe82613d1a565b91507fffffffffffffffffffffffffffffffffffffffffffffffffffffffffffffffff821415613e3157613e30613e6d565b5b600182019050919050565b6000613e4782613d1a565b9150613e5283613d1a565b925082613e6257613e61613e9c565b5b828206905092915050565b7f4e487b7100000000000000000000000000000000000000000000000000000000600052601160045260246000fd5b7f4e487b7100000000000000000000000000000000000000000000000000000000600052601260045260246000fd5b7f4e487b7100000000000000000000000000000000000000000000000000000000600052602260045260246000fd5b7f4e487b7100000000000000000000000000000000000000000000000000000000600052603160045260246000fd5b7f4e487b7100000000000000000000000000000000000000000000000000000000600052603260045260246000fd5b7f4e487b7100000000000000000000000000000000000000000000000000000000600052604160045260246000fd5b600080fd5b600080fd5b600080fd5b600080fd5b6000601f19601f8301169050919050565b7f537472696e67733a20686578206c656e67746820696e73756666696369656e74600082015250565b7f455243373231456e756d657261626c653a206f776e657220696e646578206f7560008201527f74206f6620626f756e6473000000000000000000000000000000000000000000602082015250565b7f4552433732313a207472616e7366657220746f206e6f6e20455243373231526560008201527f63656976657220696d706c656d656e7465720000000000000000000000000000602082015250565b7f4552433732313a20746f6b656e20616c7265616479206d696e74656400000000600082015250565b7f4552433732313a207472616e7366657220746f20746865207a65726f2061646460008201527f7265737300000000000000000000000000000000000000000000000000000000602082015250565b7f4552433732313a20617070726f766520746f2063616c6c657200000000000000600082015250565b7f4552433732313a206f70657261746f7220717565727920666f72206e6f6e657860008201527f697374656e7420746f6b656e0000000000000000000000000000000000000000602082015250565b7f4552433732313a20617070726f76652063616c6c6572206973206e6f74206f7760008201527f6e6572206e6f7220617070726f76656420666f7220616c6c0000000000000000602082015250565b7f4552433732313a2062616c616e636520717565727920666f7220746865207a6560008201527f726f206164647265737300000000000000000000000000000000000000000000602082015250565b7f4552433732313a206f776e657220717565727920666f72206e6f6e657869737460008201527f656e7420746f6b656e0000000000000000000000000000000000000000000000602082015250565b7f45524337323155524953746f726167653a2055524920736574206f66206e6f6e60008201527f6578697374656e7420746f6b656e000000000000000000000000000000000000602082015250565b7f4552433732313a206d696e7420746f20746865207a65726f2061646472657373600082015250565b7f45524337323155524953746f726167653a2055524920717565727920666f722060008201527f6e6f6e6578697374656e7420746f6b656e000000000000000000000000000000602082015250565b7f4552433732313a20617070726f76656420717565727920666f72206e6f6e657860008201527f697374656e7420746f6b656e0000000000000000000000000000000000000000602082015250565b7f4552433732313a207472616e73666572206f6620746f6b656e2074686174206960008201527f73206e6f74206f776e0000000000000000000000000000000000000000000000602082015250565b7f4552433732314d657461646174613a2055524920717565727920666f72206e6f60008201527f6e6578697374656e7420746f6b656e0000000000000000000000000000000000602082015250565b7f4552433732313a20617070726f76616c20746f2063757272656e74206f776e6560008201527f7200000000000000000000000000000000000000000000000000000000000000602082015250565b7f4552433732313a207472616e736665722063616c6c6572206973206e6f74206f60008201527f776e6572206e6f7220617070726f766564000000000000000000000000000000602082015250565b7f455243373231456e756d657261626c653a20676c6f62616c20696e646578206f60008201527f7574206f6620626f756e64730000000000000000000000000000000000000000602082015250565b7f416363657373436f6e74726f6c3a206163636f756e7420000000000000000000600082015250565b7f4552433732313a206d7573742068617665206d696e74657220726f6c6520746f60008201527f206d696e74000000000000000000000000000000000000000000000000000000602082015250565b7f206973206d697373696e6720726f6c6520000000000000000000000000000000600082015250565b7f416363657373436f6e74726f6c3a2063616e206f6e6c792072656e6f756e636560008201527f20726f6c657320666f722073656c660000000000000000000000000000000000602082015250565b6145ea81613ca6565b81146145f557600080fd5b50565b61460181613cb8565b811461460c57600080fd5b50565b61461881613cc4565b811461462357600080fd5b50565b61462f81613cce565b811461463a57600080fd5b50565b61464681613d1a565b811461465157600080fd5b5056fea26469706673582212203652d6668dd49c9c8ea5bff726cfde115c321838c72eab9f3a555e8831c695a564736f6c63430008070033",
  "immutableReferences": {},
  "source": "// SPDX-License-Identifier: MIT\n\npragma solidity ^0.8.0;\n\nimport \"@openzeppelin/contracts/token/ERC721/ERC721.sol\";\nimport \"@openzeppelin/contracts/token/ERC721/extensions/ERC721Enumerable.sol\";\nimport \"@openzeppelin/contracts/token/ERC721/extensions/ERC721Burnable.sol\";\nimport \"@openzeppelin/contracts/token/ERC721/extensions/ERC721Pausable.sol\";\nimport \"@openzeppelin/contracts/access/AccessControlEnumerable.sol\";\nimport \"@openzeppelin/contracts/utils/Context.sol\";\nimport \"@openzeppelin/contracts/utils/Counters.sol\";\nimport \"@openzeppelin/contracts/token/ERC721/extensions/ERC721URIStorage.sol\";\n\n/**\n * @dev {ERC721} token, including:\n *\n *  - ability for holders to burn (destroy) their tokens\n *  - a minter role that allows for token minting (creation)\n *  - ability to mint tokens with sequential ids\n *  - ability to min tokens with user defined non sequential ids  --- will not overlap if ids are large\n *  - token ID and URI autogeneration\n *\n * This contract uses {AccessControl} to lock permissioned functions using the\n * different roles - head to its documentation for details.\n *\n * The account that deploys the contract will be granted the minter and pauser\n * roles, as well as the default admin role, which will let it grant both minter\n * and pauser roles to other accounts.\n */\ncontract AccessControlled_ERC721 is\n    Context, \n    AccessControlEnumerable,\n    ERC721URIStorage,\n    ERC721Enumerable\n{\n    using Counters for Counters.Counter;\n\n    bytes32 public constant MINTER_ROLE = keccak256(\"MINTER_ROLE\");\n    bytes32 public constant READER_ROLE = keccak256(\"OTHER_ROLE\"); // Currently undefined\n\n    Counters.Counter private _tokenIdTracker;\n\n    string private _baseTokenURI;\n\n    /**\n     * @dev Grants `DEFAULT_ADMIN_ROLE`, `MINTER_ROLE`to the\n     * account that deploys the contract.\n     *\n     * Token URIs will be autogenerated based on `baseURI` and their token IDs.\n     * See {ERC721-tokenURI}.\n     */\n    constructor(\n        string memory name,\n        string memory symbol,\n        string memory baseTokenURI\n    ) ERC721(name, symbol) {\n        _baseTokenURI = baseTokenURI;\n\n        _setupRole(DEFAULT_ADMIN_ROLE, _msgSender());\n\n        _setupRole(MINTER_ROLE, _msgSender());\n    }\n\n\n    function mintNewTokenTo(\n        address _to,\n        uint256  _tokenId,\n        string memory  _tokenURI\n    ) public{\n        super._mint(_to, _tokenId);\n        super._setTokenURI(_tokenId, _tokenURI);\n    }\n\n    function tokenURI(uint256 tokenId) public view virtual override(ERC721, ERC721URIStorage) returns (string memory) {\n        return ERC721URIStorage.tokenURI(tokenId);\n     }\n\n    function _burn(uint256 tokenId) internal virtual override(ERC721, ERC721URIStorage) {\n         require(hasRole(MINTER_ROLE, _msgSender()), \"ERC721: must have minter role to burn\");\n        return ERC721URIStorage._burn(tokenId);\n    }\n\n    function mintAndSetURI(address consortiumUser, string memory stokenURI)\n        public\n        returns (uint256)\n    {\n         require(hasRole(MINTER_ROLE, _msgSender()), \"ERC721: must have minter role to mint\");\n\n\n        uint256 newItemId = _tokenIdTracker.current();\n        _mint(consortiumUser, newItemId);\n\n        _setTokenURI(newItemId, stokenURI);\n         _tokenIdTracker.increment();\n        return newItemId;\n    }\n\n    function _baseURI() internal view virtual override returns (string memory) {\n        return _baseTokenURI;\n    }\n\n    /**\n     * @dev Creates a new token for `to`. Its token ID will be automatically\n     * assigned (and available on the emitted {IERC721-Transfer} event), and the token\n     * URI autogenerated based on the base URI passed at construction.\n     *\n     * See {ERC721-_mint}.\n     *\n     * Requirements:\n     *\n     * - the caller must have the `MINTER_ROLE`.\n     */\n    function mint(address to) public virtual {\n        require(hasRole(MINTER_ROLE, _msgSender()), \"ERC721: must have minter role to mint\");\n\n        // We cannot just use balanceOf to create the new tokenId because tokens\n        // can be burned (destroyed), so we need a separate counter.\n        _mint(to, _tokenIdTracker.current());\n        _tokenIdTracker.increment();\n    }\n\n\n    function _beforeTokenTransfer(\n        address from,\n        address to,\n        uint256 tokenId\n    ) internal virtual override(ERC721, ERC721Enumerable) {\n        super._beforeTokenTransfer(from, to, tokenId);\n    }\n\n    /**\n     * @dev See {IERC165-supportsInterface}.\n     */\n    function supportsInterface(bytes4 interfaceId)\n        public\n        view\n        virtual\n        override(AccessControlEnumerable, ERC721, ERC721Enumerable)\n        returns (bool)\n    {\n        return super.supportsInterface(interfaceId);\n    }\n}\n",
  "sourcePath": "/home/salman/privateEthTestNet/consortium_network/network/consortium_contracts/contracts/AccessControl_Token.sol",
  "compiler": {
    "name": "solc",
    "version": "0.8.7+commit.e28d00a7.Emscripten.clang"
  },
  "schemaVersion": "3.4.3",
  "updatedAt": "2021-08-23T18:33:03.379Z",
  "networkType": "quorum",
  "devdoc": {
    "details": "{ERC721} token, including:  - ability for holders to burn (destroy) their tokens  - a minter role that allows for token minting (creation)  - ability to mint tokens with sequential ids  - ability to min tokens with user defined non sequential ids  --- will not overlap if ids are large  - token ID and URI autogeneration This contract uses {AccessControl} to lock permissioned functions using the different roles - head to its documentation for details. The account that deploys the contract will be granted the minter and pauser roles, as well as the default admin role, which will let it grant both minter and pauser roles to other accounts.",
    "kind": "dev",
    "methods": {
      "approve(address,uint256)": {
        "details": "See {IERC721-approve}."
      },
      "balanceOf(address)": {
        "details": "See {IERC721-balanceOf}."
      },
      "constructor": {
        "details": "Grants `DEFAULT_ADMIN_ROLE`, `MINTER_ROLE`to the account that deploys the contract. Token URIs will be autogenerated based on `baseURI` and their token IDs. See {ERC721-tokenURI}."
      },
      "getApproved(uint256)": {
        "details": "See {IERC721-getApproved}."
      },
      "getRoleAdmin(bytes32)": {
        "details": "Returns the admin role that controls `role`. See {grantRole} and {revokeRole}. To change a role's admin, use {_setRoleAdmin}."
      },
      "getRoleMember(bytes32,uint256)": {
        "details": "Returns one of the accounts that have `role`. `index` must be a value between 0 and {getRoleMemberCount}, non-inclusive. Role bearers are not sorted in any particular way, and their ordering may change at any point. WARNING: When using {getRoleMember} and {getRoleMemberCount}, make sure you perform all queries on the same block. See the following https://forum.openzeppelin.com/t/iterating-over-elements-on-enumerableset-in-openzeppelin-contracts/2296[forum post] for more information."
      },
      "getRoleMemberCount(bytes32)": {
        "details": "Returns the number of accounts that have `role`. Can be used together with {getRoleMember} to enumerate all bearers of a role."
      },
      "grantRole(bytes32,address)": {
        "details": "Overload {grantRole} to track enumerable memberships"
      },
      "hasRole(bytes32,address)": {
        "details": "Returns `true` if `account` has been granted `role`."
      },
      "isApprovedForAll(address,address)": {
        "details": "See {IERC721-isApprovedForAll}."
      },
      "mint(address)": {
        "details": "Creates a new token for `to`. Its token ID will be automatically assigned (and available on the emitted {IERC721-Transfer} event), and the token URI autogenerated based on the base URI passed at construction. See {ERC721-_mint}. Requirements: - the caller must have the `MINTER_ROLE`."
      },
      "name()": {
        "details": "See {IERC721Metadata-name}."
      },
      "ownerOf(uint256)": {
        "details": "See {IERC721-ownerOf}."
      },
      "renounceRole(bytes32,address)": {
        "details": "Overload {renounceRole} to track enumerable memberships"
      },
      "revokeRole(bytes32,address)": {
        "details": "Overload {revokeRole} to track enumerable memberships"
      },
      "safeTransferFrom(address,address,uint256)": {
        "details": "See {IERC721-safeTransferFrom}."
      },
      "safeTransferFrom(address,address,uint256,bytes)": {
        "details": "See {IERC721-safeTransferFrom}."
      },
      "setApprovalForAll(address,bool)": {
        "details": "See {IERC721-setApprovalForAll}."
      },
      "supportsInterface(bytes4)": {
        "details": "See {IERC165-supportsInterface}."
      },
      "symbol()": {
        "details": "See {IERC721Metadata-symbol}."
      },
      "tokenByIndex(uint256)": {
        "details": "See {IERC721Enumerable-tokenByIndex}."
      },
      "tokenOfOwnerByIndex(address,uint256)": {
        "details": "See {IERC721Enumerable-tokenOfOwnerByIndex}."
      },
      "totalSupply()": {
        "details": "See {IERC721Enumerable-totalSupply}."
      },
      "transferFrom(address,address,uint256)": {
        "details": "See {IERC721-transferFrom}."
      }
    },
    "version": 1
  },
  "userdoc": {
    "kind": "user",
    "methods": {},
    "version": 1
  }
}