{
  "contractName": "NftItem",
  "abi": [
    {
      "inputs": [
        {
          "internalType": "string",
          "name": "name",
          "type": "string"
        },
        {
          "internalType": "string",
          "name": "symbol_",
          "type": "string"
        }
      ],
      "stateMutability": "nonpayable",
      "type": "constructor"
    },
    {
      "anonymous": false,
      "inputs": [
        {
          "indexed": true,
          "internalType": "address",
          "name": "owner",
          "type": "address"
        },
        {
          "indexed": true,
          "internalType": "address",
          "name": "approved",
          "type": "address"
        },
        {
          "indexed": true,
          "internalType": "uint256",
          "name": "tokenId",
          "type": "uint256"
        }
      ],
      "name": "Approval",
      "type": "event"
    },
    {
      "anonymous": false,
      "inputs": [
        {
          "indexed": true,
          "internalType": "address",
          "name": "owner",
          "type": "address"
        },
        {
          "indexed": true,
          "internalType": "address",
          "name": "operator",
          "type": "address"
        },
        {
          "indexed": false,
          "internalType": "bool",
          "name": "approved",
          "type": "bool"
        }
      ],
      "name": "ApprovalForAll",
      "type": "event"
    },
    {
      "anonymous": false,
      "inputs": [
        {
          "indexed": true,
          "internalType": "address",
          "name": "from",
          "type": "address"
        },
        {
          "indexed": true,
          "internalType": "address",
          "name": "to",
          "type": "address"
        },
        {
          "indexed": true,
          "internalType": "uint256",
          "name": "tokenId",
          "type": "uint256"
        }
      ],
      "name": "Transfer",
      "type": "event"
    },
    {
      "inputs": [
        {
          "internalType": "address",
          "name": "to",
          "type": "address"
        },
        {
          "internalType": "uint256",
          "name": "tokenId",
          "type": "uint256"
        }
      ],
      "name": "approve",
      "outputs": [],
      "stateMutability": "nonpayable",
      "type": "function"
    },
    {
      "inputs": [
        {
          "internalType": "address",
          "name": "owner",
          "type": "address"
        }
      ],
      "name": "balanceOf",
      "outputs": [
        {
          "internalType": "uint256",
          "name": "",
          "type": "uint256"
        }
      ],
      "stateMutability": "view",
      "type": "function",
      "constant": true
    },
    {
      "inputs": [
        {
          "internalType": "uint256",
          "name": "tokenId",
          "type": "uint256"
        }
      ],
      "name": "getApproved",
      "outputs": [
        {
          "internalType": "address",
          "name": "",
          "type": "address"
        }
      ],
      "stateMutability": "view",
      "type": "function",
      "constant": true
    },
    {
      "inputs": [
        {
          "internalType": "address",
          "name": "owner",
          "type": "address"
        },
        {
          "internalType": "address",
          "name": "operator",
          "type": "address"
        }
      ],
      "name": "isApprovedForAll",
      "outputs": [
        {
          "internalType": "bool",
          "name": "",
          "type": "bool"
        }
      ],
      "stateMutability": "view",
      "type": "function",
      "constant": true
    },
    {
      "inputs": [],
      "name": "name",
      "outputs": [
        {
          "internalType": "string",
          "name": "",
          "type": "string"
        }
      ],
      "stateMutability": "view",
      "type": "function",
      "constant": true
    },
    {
      "inputs": [
        {
          "internalType": "uint256",
          "name": "tokenId",
          "type": "uint256"
        }
      ],
      "name": "ownerOf",
      "outputs": [
        {
          "internalType": "address",
          "name": "",
          "type": "address"
        }
      ],
      "stateMutability": "view",
      "type": "function",
      "constant": true
    },
    {
      "inputs": [
        {
          "internalType": "address",
          "name": "from",
          "type": "address"
        },
        {
          "internalType": "address",
          "name": "to",
          "type": "address"
        },
        {
          "internalType": "uint256",
          "name": "tokenId",
          "type": "uint256"
        }
      ],
      "name": "safeTransferFrom",
      "outputs": [],
      "stateMutability": "nonpayable",
      "type": "function"
    },
    {
      "inputs": [
        {
          "internalType": "address",
          "name": "from",
          "type": "address"
        },
        {
          "internalType": "address",
          "name": "to",
          "type": "address"
        },
        {
          "internalType": "uint256",
          "name": "tokenId",
          "type": "uint256"
        },
        {
          "internalType": "bytes",
          "name": "_data",
          "type": "bytes"
        }
      ],
      "name": "safeTransferFrom",
      "outputs": [],
      "stateMutability": "nonpayable",
      "type": "function"
    },
    {
      "inputs": [
        {
          "internalType": "address",
          "name": "operator",
          "type": "address"
        },
        {
          "internalType": "bool",
          "name": "approved",
          "type": "bool"
        }
      ],
      "name": "setApprovalForAll",
      "outputs": [],
      "stateMutability": "nonpayable",
      "type": "function"
    },
    {
      "inputs": [
        {
          "internalType": "bytes4",
          "name": "interfaceId",
          "type": "bytes4"
        }
      ],
      "name": "supportsInterface",
      "outputs": [
        {
          "internalType": "bool",
          "name": "",
          "type": "bool"
        }
      ],
      "stateMutability": "view",
      "type": "function",
      "constant": true
    },
    {
      "inputs": [],
      "name": "symbol",
      "outputs": [
        {
          "internalType": "string",
          "name": "",
          "type": "string"
        }
      ],
      "stateMutability": "view",
      "type": "function",
      "constant": true
    },
    {
      "inputs": [
        {
          "internalType": "uint256",
          "name": "tokenId",
          "type": "uint256"
        }
      ],
      "name": "tokenURI",
      "outputs": [
        {
          "internalType": "string",
          "name": "",
          "type": "string"
        }
      ],
      "stateMutability": "view",
      "type": "function",
      "constant": true
    },
    {
      "inputs": [
        {
          "internalType": "address",
          "name": "from",
          "type": "address"
        },
        {
          "internalType": "address",
          "name": "to",
          "type": "address"
        },
        {
          "internalType": "uint256",
          "name": "tokenId",
          "type": "uint256"
        }
      ],
      "name": "transferFrom",
      "outputs": [],
      "stateMutability": "nonpayable",
      "type": "function"
    },
    {
      "inputs": [
        {
          "internalType": "address",
          "name": "_to",
          "type": "address"
        },
        {
          "internalType": "uint256",
          "name": "_tokenId",
          "type": "uint256"
        },
        {
          "internalType": "string",
          "name": "_tokenURI",
          "type": "string"
        }
      ],
      "name": "mintNewTokenTo",
      "outputs": [],
      "stateMutability": "nonpayable",
      "type": "function"
    },
    {
      "inputs": [
        {
          "internalType": "address",
          "name": "consortiumUser",
          "type": "address"
        },
        {
          "internalType": "string",
          "name": "tokenURI",
          "type": "string"
        }
      ],
      "name": "awardSequentialItem",
      "outputs": [
        {
          "internalType": "uint256",
          "name": "",
          "type": "uint256"
        }
      ],
      "stateMutability": "nonpayable",
      "type": "function"
    }
  ],
  "bytecode": "0x60806040523480156200001157600080fd5b506040516200300e3803806200300e8339818101604052810190620000379190620001a3565b818181600090805190602001906200005192919062000075565b5080600190805190602001906200006a92919062000075565b5050505050620003ac565b8280546200008390620002bd565b90600052602060002090601f016020900481019282620000a75760008555620000f3565b82601f10620000c257805160ff1916838001178555620000f3565b82800160010185558215620000f3579182015b82811115620000f2578251825591602001919060010190620000d5565b5b50905062000102919062000106565b5090565b5b808211156200012157600081600090555060010162000107565b5090565b60006200013c620001368462000251565b62000228565b9050828152602081018484840111156200015b576200015a6200038c565b5b6200016884828562000287565b509392505050565b600082601f83011262000188576200018762000387565b5b81516200019a84826020860162000125565b91505092915050565b60008060408385031215620001bd57620001bc62000396565b5b600083015167ffffffffffffffff811115620001de57620001dd62000391565b5b620001ec8582860162000170565b925050602083015167ffffffffffffffff81111562000210576200020f62000391565b5b6200021e8582860162000170565b9150509250929050565b60006200023462000247565b9050620002428282620002f3565b919050565b6000604051905090565b600067ffffffffffffffff8211156200026f576200026e62000358565b5b6200027a826200039b565b9050602081019050919050565b60005b83811015620002a75780820151818401526020810190506200028a565b83811115620002b7576000848401525b50505050565b60006002820490506001821680620002d657607f821691505b60208210811415620002ed57620002ec62000329565b5b50919050565b620002fe826200039b565b810181811067ffffffffffffffff8211171562000320576200031f62000358565b5b80604052505050565b7f4e487b7100000000000000000000000000000000000000000000000000000000600052602260045260246000fd5b7f4e487b7100000000000000000000000000000000000000000000000000000000600052604160045260246000fd5b600080fd5b600080fd5b600080fd5b600080fd5b6000601f19601f8301169050919050565b612c5280620003bc6000396000f3fe608060405234801561001057600080fd5b50600436106100f55760003560e01c806342842e0e11610097578063a22cb46511610066578063a22cb46514610296578063b88d4fde146102b2578063c87b56dd146102ce578063e985e9c5146102fe576100f5565b806342842e0e146101fc5780636352211e1461021857806370a082311461024857806395d89b4114610278576100f5565b8063095ea7b3116100d3578063095ea7b3146101785780631ba1137b1461019457806323b872dd146101b05780633ea1c8f5146101cc576100f5565b806301ffc9a7146100fa57806306fdde031461012a578063081812fc14610148575b600080fd5b610114600480360381019061010f9190611cb0565b61032e565b60405161012191906120c2565b60405180910390f35b610132610410565b60405161013f91906120dd565b60405180910390f35b610162600480360381019061015d9190611d0a565b6104a2565b60405161016f919061205b565b60405180910390f35b610192600480360381019061018d9190611c01565b610527565b005b6101ae60048036038101906101a99190611c41565b61063f565b005b6101ca60048036038101906101c59190611a8f565b610658565b005b6101e660048036038101906101e19190611ba5565b6106b8565b6040516101f391906122ff565b60405180910390f35b61021660048036038101906102119190611a8f565b6106f0565b005b610232600480360381019061022d9190611d0a565b610710565b60405161023f919061205b565b60405180910390f35b610262600480360381019061025d9190611a22565b6107c2565b60405161026f91906122ff565b60405180910390f35b61028061087a565b60405161028d91906120dd565b60405180910390f35b6102b060048036038101906102ab9190611b65565b61090c565b005b6102cc60048036038101906102c79190611ae2565b610a8d565b005b6102e860048036038101906102e39190611d0a565b610aef565b6040516102f591906120dd565b60405180910390f35b61031860048036038101906103139190611a4f565b610c41565b60405161032591906120c2565b60405180910390f35b60007f80ac58cd000000000000000000000000000000000000000000000000000000007bffffffffffffffffffffffffffffffffffffffffffffffffffffffff1916827bffffffffffffffffffffffffffffffffffffffffffffffffffffffff191614806103f957507f5b5e139f000000000000000000000000000000000000000000000000000000007bffffffffffffffffffffffffffffffffffffffffffffffffffffffff1916827bffffffffffffffffffffffffffffffffffffffffffffffffffffffff1916145b80610409575061040882610cd5565b5b9050919050565b60606000805461041f90612555565b80601f016020809104026020016040519081016040528092919081815260200182805461044b90612555565b80156104985780601f1061046d57610100808354040283529160200191610498565b820191906000526020600020905b81548152906001019060200180831161047b57829003601f168201915b5050505050905090565b60006104ad82610d3f565b6104ec576040517f08c379a00000000000000000000000000000000000000000000000000000000081526004016104e39061225f565b60405180910390fd5b6004600083815260200190815260200160002060009054906101000a900473ffffffffffffffffffffffffffffffffffffffff169050919050565b600061053282610710565b90508073ffffffffffffffffffffffffffffffffffffffff168373ffffffffffffffffffffffffffffffffffffffff1614156105a3576040517f08c379a000000000000000000000000000000000000000000000000000000000815260040161059a906122bf565b60405180910390fd5b8073ffffffffffffffffffffffffffffffffffffffff166105c2610dab565b73ffffffffffffffffffffffffffffffffffffffff1614806105f157506105f0816105eb610dab565b610c41565b5b610630576040517f08c379a00000000000000000000000000000000000000000000000000000000081526004016106279061219f565b60405180910390fd5b61063a8383610db3565b505050565b6106498383610e6c565b610653828261103a565b505050565b610669610663610dab565b826110ae565b6106a8576040517f08c379a000000000000000000000000000000000000000000000000000000000815260040161069f906122df565b60405180910390fd5b6106b383838361118c565b505050565b60006106c460076113e8565b60006106d060076113fe565b90506106dc8482610e6c565b6106e6818461103a565b8091505092915050565b61070b83838360405180602001604052806000815250610a8d565b505050565b6000806002600084815260200190815260200160002060009054906101000a900473ffffffffffffffffffffffffffffffffffffffff169050600073ffffffffffffffffffffffffffffffffffffffff168173ffffffffffffffffffffffffffffffffffffffff1614156107b9576040517f08c379a00000000000000000000000000000000000000000000000000000000081526004016107b0906121df565b60405180910390fd5b80915050919050565b60008073ffffffffffffffffffffffffffffffffffffffff168273ffffffffffffffffffffffffffffffffffffffff161415610833576040517f08c379a000000000000000000000000000000000000000000000000000000000815260040161082a906121bf565b60405180910390fd5b600360008373ffffffffffffffffffffffffffffffffffffffff1673ffffffffffffffffffffffffffffffffffffffff168152602001908152602001600020549050919050565b60606001805461088990612555565b80601f01602080910402602001604051908101604052809291908181526020018280546108b590612555565b80156109025780601f106108d757610100808354040283529160200191610902565b820191906000526020600020905b8154815290600101906020018083116108e557829003601f168201915b5050505050905090565b610914610dab565b73ffffffffffffffffffffffffffffffffffffffff168273ffffffffffffffffffffffffffffffffffffffff161415610982576040517f08c379a00000000000000000000000000000000000000000000000000000000081526004016109799061215f565b60405180910390fd5b806005600061098f610dab565b73ffffffffffffffffffffffffffffffffffffffff1673ffffffffffffffffffffffffffffffffffffffff16815260200190815260200160002060008473ffffffffffffffffffffffffffffffffffffffff1673ffffffffffffffffffffffffffffffffffffffff16815260200190815260200160002060006101000a81548160ff0219169083151502179055508173ffffffffffffffffffffffffffffffffffffffff16610a3c610dab565b73ffffffffffffffffffffffffffffffffffffffff167f17307eab39ab6107e8899845ad3d59bd9653f200f220920489ca2b5937696c3183604051610a8191906120c2565b60405180910390a35050565b610a9e610a98610dab565b836110ae565b610add576040517f08c379a0000000000000000000000000000000000000000000000000000000008152600401610ad4906122df565b60405180910390fd5b610ae98484848461140c565b50505050565b6060610afa82610d3f565b610b39576040517f08c379a0000000000000000000000000000000000000000000000000000000008152600401610b309061223f565b60405180910390fd5b6000600660008481526020019081526020016000208054610b5990612555565b80601f0160208091040260200160405190810160405280929190818152602001828054610b8590612555565b8015610bd25780601f10610ba757610100808354040283529160200191610bd2565b820191906000526020600020905b815481529060010190602001808311610bb557829003601f168201915b505050505090506000610be3611468565b9050600081511415610bf9578192505050610c3c565b600082511115610c2e578082604051602001610c16929190612037565b60405160208183030381529060405292505050610c3c565b610c378461147f565b925050505b919050565b6000600560008473ffffffffffffffffffffffffffffffffffffffff1673ffffffffffffffffffffffffffffffffffffffff16815260200190815260200160002060008373ffffffffffffffffffffffffffffffffffffffff1673ffffffffffffffffffffffffffffffffffffffff16815260200190815260200160002060009054906101000a900460ff16905092915050565b60007f01ffc9a7000000000000000000000000000000000000000000000000000000007bffffffffffffffffffffffffffffffffffffffffffffffffffffffff1916827bffffffffffffffffffffffffffffffffffffffffffffffffffffffff1916149050919050565b60008073ffffffffffffffffffffffffffffffffffffffff166002600084815260200190815260200160002060009054906101000a900473ffffffffffffffffffffffffffffffffffffffff1673ffffffffffffffffffffffffffffffffffffffff1614159050919050565b600033905090565b816004600083815260200190815260200160002060006101000a81548173ffffffffffffffffffffffffffffffffffffffff021916908373ffffffffffffffffffffffffffffffffffffffff160217905550808273ffffffffffffffffffffffffffffffffffffffff16610e2683610710565b73ffffffffffffffffffffffffffffffffffffffff167f8c5be1e5ebec7d5bd14f71427d1e84f3dd0314c0f7b2291e5b200ac8c7c3b92560405160405180910390a45050565b600073ffffffffffffffffffffffffffffffffffffffff168273ffffffffffffffffffffffffffffffffffffffff161415610edc576040517f08c379a0000000000000000000000000000000000000000000000000000000008152600401610ed39061221f565b60405180910390fd5b610ee581610d3f565b15610f25576040517f08c379a0000000000000000000000000000000000000000000000000000000008152600401610f1c9061211f565b60405180910390fd5b610f3160008383611526565b6001600360008473ffffffffffffffffffffffffffffffffffffffff1673ffffffffffffffffffffffffffffffffffffffff1681526020019081526020016000206000828254610f8191906123e4565b92505081905550816002600083815260200190815260200160002060006101000a81548173ffffffffffffffffffffffffffffffffffffffff021916908373ffffffffffffffffffffffffffffffffffffffff160217905550808273ffffffffffffffffffffffffffffffffffffffff16600073ffffffffffffffffffffffffffffffffffffffff167fddf252ad1be2c89b69c2b068fc378daa952ba7f163c4a11628f55a4df523b3ef60405160405180910390a45050565b61104382610d3f565b611082576040517f08c379a0000000000000000000000000000000000000000000000000000000008152600401611079906121ff565b60405180910390fd5b806006600084815260200190815260200160002090805190602001906110a9929190611836565b505050565b60006110b982610d3f565b6110f8576040517f08c379a00000000000000000000000000000000000000000000000000000000081526004016110ef9061217f565b60405180910390fd5b600061110383610710565b90508073ffffffffffffffffffffffffffffffffffffffff168473ffffffffffffffffffffffffffffffffffffffff16148061117257508373ffffffffffffffffffffffffffffffffffffffff1661115a846104a2565b73ffffffffffffffffffffffffffffffffffffffff16145b8061118357506111828185610c41565b5b91505092915050565b8273ffffffffffffffffffffffffffffffffffffffff166111ac82610710565b73ffffffffffffffffffffffffffffffffffffffff1614611202576040517f08c379a00000000000000000000000000000000000000000000000000000000081526004016111f99061227f565b60405180910390fd5b600073ffffffffffffffffffffffffffffffffffffffff168273ffffffffffffffffffffffffffffffffffffffff161415611272576040517f08c379a00000000000000000000000000000000000000000000000000000000081526004016112699061213f565b60405180910390fd5b61127d838383611526565b611288600082610db3565b6001600360008573ffffffffffffffffffffffffffffffffffffffff1673ffffffffffffffffffffffffffffffffffffffff16815260200190815260200160002060008282546112d8919061246b565b925050819055506001600360008473ffffffffffffffffffffffffffffffffffffffff1673ffffffffffffffffffffffffffffffffffffffff168152602001908152602001600020600082825461132f91906123e4565b92505081905550816002600083815260200190815260200160002060006101000a81548173ffffffffffffffffffffffffffffffffffffffff021916908373ffffffffffffffffffffffffffffffffffffffff160217905550808273ffffffffffffffffffffffffffffffffffffffff168473ffffffffffffffffffffffffffffffffffffffff167fddf252ad1be2c89b69c2b068fc378daa952ba7f163c4a11628f55a4df523b3ef60405160405180910390a4505050565b6001816000016000828254019250508190555050565b600081600001549050919050565b61141784848461118c565b6114238484848461152b565b611462576040517f08c379a0000000000000000000000000000000000000000000000000000000008152600401611459906120ff565b60405180910390fd5b50505050565b606060405180602001604052806000815250905090565b606061148a82610d3f565b6114c9576040517f08c379a00000000000000000000000000000000000000000000000000000000081526004016114c09061229f565b60405180910390fd5b60006114d3611468565b905060008151116114f3576040518060200160405280600081525061151e565b806114fd846116c2565b60405160200161150e929190612037565b6040516020818303038152906040525b915050919050565b505050565b600061154c8473ffffffffffffffffffffffffffffffffffffffff16611823565b156116b5578373ffffffffffffffffffffffffffffffffffffffff1663150b7a02611575610dab565b8786866040518563ffffffff1660e01b81526004016115979493929190612076565b602060405180830381600087803b1580156115b157600080fd5b505af19250505080156115e257506040513d601f19601f820116820180604052508101906115df9190611cdd565b60015b611665573d8060008114611612576040519150601f19603f3d011682016040523d82523d6000602084013e611617565b606091505b5060008151141561165d576040517f08c379a0000000000000000000000000000000000000000000000000000000008152600401611654906120ff565b60405180910390fd5b805181602001fd5b63150b7a0260e01b7bffffffffffffffffffffffffffffffffffffffffffffffffffffffff1916817bffffffffffffffffffffffffffffffffffffffffffffffffffffffff1916149150506116ba565b600190505b949350505050565b6060600082141561170a576040518060400160405280600181526020017f3000000000000000000000000000000000000000000000000000000000000000815250905061181e565b600082905060005b6000821461173c578080611725906125b8565b915050600a82611735919061243a565b9150611712565b60008167ffffffffffffffff811115611758576117576126ee565b5b6040519080825280601f01601f19166020018201604052801561178a5781602001600182028036833780820191505090505b5090505b60008514611817576001826117a3919061246b565b9150600a856117b29190612601565b60306117be91906123e4565b60f81b8183815181106117d4576117d36126bf565b5b60200101907effffffffffffffffffffffffffffffffffffffffffffffffffffffffffffff1916908160001a905350600a85611810919061243a565b945061178e565b8093505050505b919050565b600080823b905060008111915050919050565b82805461184290612555565b90600052602060002090601f01602090048101928261186457600085556118ab565b82601f1061187d57805160ff19168380011785556118ab565b828001600101855582156118ab579182015b828111156118aa57825182559160200191906001019061188f565b5b5090506118b891906118bc565b5090565b5b808211156118d55760008160009055506001016118bd565b5090565b60006118ec6118e78461233f565b61231a565b90508281526020810184848401111561190857611907612722565b5b611913848285612513565b509392505050565b600061192e61192984612370565b61231a565b90508281526020810184848401111561194a57611949612722565b5b611955848285612513565b509392505050565b60008135905061196c81612bc0565b92915050565b60008135905061198181612bd7565b92915050565b60008135905061199681612bee565b92915050565b6000815190506119ab81612bee565b92915050565b600082601f8301126119c6576119c561271d565b5b81356119d68482602086016118d9565b91505092915050565b600082601f8301126119f4576119f361271d565b5b8135611a0484826020860161191b565b91505092915050565b600081359050611a1c81612c05565b92915050565b600060208284031215611a3857611a3761272c565b5b6000611a468482850161195d565b91505092915050565b60008060408385031215611a6657611a6561272c565b5b6000611a748582860161195d565b9250506020611a858582860161195d565b9150509250929050565b600080600060608486031215611aa857611aa761272c565b5b6000611ab68682870161195d565b9350506020611ac78682870161195d565b9250506040611ad886828701611a0d565b9150509250925092565b60008060008060808587031215611afc57611afb61272c565b5b6000611b0a8782880161195d565b9450506020611b1b8782880161195d565b9350506040611b2c87828801611a0d565b925050606085013567ffffffffffffffff811115611b4d57611b4c612727565b5b611b59878288016119b1565b91505092959194509250565b60008060408385031215611b7c57611b7b61272c565b5b6000611b8a8582860161195d565b9250506020611b9b85828601611972565b9150509250929050565b60008060408385031215611bbc57611bbb61272c565b5b6000611bca8582860161195d565b925050602083013567ffffffffffffffff811115611beb57611bea612727565b5b611bf7858286016119df565b9150509250929050565b60008060408385031215611c1857611c1761272c565b5b6000611c268582860161195d565b9250506020611c3785828601611a0d565b9150509250929050565b600080600060608486031215611c5a57611c5961272c565b5b6000611c688682870161195d565b9350506020611c7986828701611a0d565b925050604084013567ffffffffffffffff811115611c9a57611c99612727565b5b611ca6868287016119df565b9150509250925092565b600060208284031215611cc657611cc561272c565b5b6000611cd484828501611987565b91505092915050565b600060208284031215611cf357611cf261272c565b5b6000611d018482850161199c565b91505092915050565b600060208284031215611d2057611d1f61272c565b5b6000611d2e84828501611a0d565b91505092915050565b611d408161249f565b82525050565b611d4f816124b1565b82525050565b6000611d60826123a1565b611d6a81856123b7565b9350611d7a818560208601612522565b611d8381612731565b840191505092915050565b6000611d99826123ac565b611da381856123c8565b9350611db3818560208601612522565b611dbc81612731565b840191505092915050565b6000611dd2826123ac565b611ddc81856123d9565b9350611dec818560208601612522565b80840191505092915050565b6000611e056032836123c8565b9150611e1082612742565b604082019050919050565b6000611e28601c836123c8565b9150611e3382612791565b602082019050919050565b6000611e4b6024836123c8565b9150611e56826127ba565b604082019050919050565b6000611e6e6019836123c8565b9150611e7982612809565b602082019050919050565b6000611e91602c836123c8565b9150611e9c82612832565b604082019050919050565b6000611eb46038836123c8565b9150611ebf82612881565b604082019050919050565b6000611ed7602a836123c8565b9150611ee2826128d0565b604082019050919050565b6000611efa6029836123c8565b9150611f058261291f565b604082019050919050565b6000611f1d602e836123c8565b9150611f288261296e565b604082019050919050565b6000611f406020836123c8565b9150611f4b826129bd565b602082019050919050565b6000611f636031836123c8565b9150611f6e826129e6565b604082019050919050565b6000611f86602c836123c8565b9150611f9182612a35565b604082019050919050565b6000611fa96029836123c8565b9150611fb482612a84565b604082019050919050565b6000611fcc602f836123c8565b9150611fd782612ad3565b604082019050919050565b6000611fef6021836123c8565b9150611ffa82612b22565b604082019050919050565b60006120126031836123c8565b915061201d82612b71565b604082019050919050565b61203181612509565b82525050565b60006120438285611dc7565b915061204f8284611dc7565b91508190509392505050565b60006020820190506120706000830184611d37565b92915050565b600060808201905061208b6000830187611d37565b6120986020830186611d37565b6120a56040830185612028565b81810360608301526120b78184611d55565b905095945050505050565b60006020820190506120d76000830184611d46565b92915050565b600060208201905081810360008301526120f78184611d8e565b905092915050565b6000602082019050818103600083015261211881611df8565b9050919050565b6000602082019050818103600083015261213881611e1b565b9050919050565b6000602082019050818103600083015261215881611e3e565b9050919050565b6000602082019050818103600083015261217881611e61565b9050919050565b6000602082019050818103600083015261219881611e84565b9050919050565b600060208201905081810360008301526121b881611ea7565b9050919050565b600060208201905081810360008301526121d881611eca565b9050919050565b600060208201905081810360008301526121f881611eed565b9050919050565b6000602082019050818103600083015261221881611f10565b9050919050565b6000602082019050818103600083015261223881611f33565b9050919050565b6000602082019050818103600083015261225881611f56565b9050919050565b6000602082019050818103600083015261227881611f79565b9050919050565b6000602082019050818103600083015261229881611f9c565b9050919050565b600060208201905081810360008301526122b881611fbf565b9050919050565b600060208201905081810360008301526122d881611fe2565b9050919050565b600060208201905081810360008301526122f881612005565b9050919050565b60006020820190506123146000830184612028565b92915050565b6000612324612335565b90506123308282612587565b919050565b6000604051905090565b600067ffffffffffffffff82111561235a576123596126ee565b5b61236382612731565b9050602081019050919050565b600067ffffffffffffffff82111561238b5761238a6126ee565b5b61239482612731565b9050602081019050919050565b600081519050919050565b600081519050919050565b600082825260208201905092915050565b600082825260208201905092915050565b600081905092915050565b60006123ef82612509565b91506123fa83612509565b9250827fffffffffffffffffffffffffffffffffffffffffffffffffffffffffffffffff0382111561242f5761242e612632565b5b828201905092915050565b600061244582612509565b915061245083612509565b9250826124605761245f612661565b5b828204905092915050565b600061247682612509565b915061248183612509565b92508282101561249457612493612632565b5b828203905092915050565b60006124aa826124e9565b9050919050565b60008115159050919050565b60007fffffffff0000000000000000000000000000000000000000000000000000000082169050919050565b600073ffffffffffffffffffffffffffffffffffffffff82169050919050565b6000819050919050565b82818337600083830152505050565b60005b83811015612540578082015181840152602081019050612525565b8381111561254f576000848401525b50505050565b6000600282049050600182168061256d57607f821691505b6020821081141561258157612580612690565b5b50919050565b61259082612731565b810181811067ffffffffffffffff821117156125af576125ae6126ee565b5b80604052505050565b60006125c382612509565b91507fffffffffffffffffffffffffffffffffffffffffffffffffffffffffffffffff8214156125f6576125f5612632565b5b600182019050919050565b600061260c82612509565b915061261783612509565b92508261262757612626612661565b5b828206905092915050565b7f4e487b7100000000000000000000000000000000000000000000000000000000600052601160045260246000fd5b7f4e487b7100000000000000000000000000000000000000000000000000000000600052601260045260246000fd5b7f4e487b7100000000000000000000000000000000000000000000000000000000600052602260045260246000fd5b7f4e487b7100000000000000000000000000000000000000000000000000000000600052603260045260246000fd5b7f4e487b7100000000000000000000000000000000000000000000000000000000600052604160045260246000fd5b600080fd5b600080fd5b600080fd5b600080fd5b6000601f19601f8301169050919050565b7f4552433732313a207472616e7366657220746f206e6f6e20455243373231526560008201527f63656976657220696d706c656d656e7465720000000000000000000000000000602082015250565b7f4552433732313a20746f6b656e20616c7265616479206d696e74656400000000600082015250565b7f4552433732313a207472616e7366657220746f20746865207a65726f2061646460008201527f7265737300000000000000000000000000000000000000000000000000000000602082015250565b7f4552433732313a20617070726f766520746f2063616c6c657200000000000000600082015250565b7f4552433732313a206f70657261746f7220717565727920666f72206e6f6e657860008201527f697374656e7420746f6b656e0000000000000000000000000000000000000000602082015250565b7f4552433732313a20617070726f76652063616c6c6572206973206e6f74206f7760008201527f6e6572206e6f7220617070726f76656420666f7220616c6c0000000000000000602082015250565b7f4552433732313a2062616c616e636520717565727920666f7220746865207a6560008201527f726f206164647265737300000000000000000000000000000000000000000000602082015250565b7f4552433732313a206f776e657220717565727920666f72206e6f6e657869737460008201527f656e7420746f6b656e0000000000000000000000000000000000000000000000602082015250565b7f45524337323155524953746f726167653a2055524920736574206f66206e6f6e60008201527f6578697374656e7420746f6b656e000000000000000000000000000000000000602082015250565b7f4552433732313a206d696e7420746f20746865207a65726f2061646472657373600082015250565b7f45524337323155524953746f726167653a2055524920717565727920666f722060008201527f6e6f6e6578697374656e7420746f6b656e000000000000000000000000000000602082015250565b7f4552433732313a20617070726f76656420717565727920666f72206e6f6e657860008201527f697374656e7420746f6b656e0000000000000000000000000000000000000000602082015250565b7f4552433732313a207472616e73666572206f6620746f6b656e2074686174206960008201527f73206e6f74206f776e0000000000000000000000000000000000000000000000602082015250565b7f4552433732314d657461646174613a2055524920717565727920666f72206e6f60008201527f6e6578697374656e7420746f6b656e0000000000000000000000000000000000602082015250565b7f4552433732313a20617070726f76616c20746f2063757272656e74206f776e6560008201527f7200000000000000000000000000000000000000000000000000000000000000602082015250565b7f4552433732313a207472616e736665722063616c6c6572206973206e6f74206f60008201527f776e6572206e6f7220617070726f766564000000000000000000000000000000602082015250565b612bc98161249f565b8114612bd457600080fd5b50565b612be0816124b1565b8114612beb57600080fd5b50565b612bf7816124bd565b8114612c0257600080fd5b50565b612c0e81612509565b8114612c1957600080fd5b5056fea2646970667358221220029363589774f3463ade8a1fa04eb326f0a925af899dd6e972d31775a3866b0664736f6c63430008070033",
  "immutableReferences": {},
  "source": "pragma solidity ^0.8.0;\n\nimport \"@openzeppelin/contracts/token/ERC721/ERC721.sol\";\nimport \"@openzeppelin/contracts/utils/Counters.sol\";\nimport \"@openzeppelin/contracts/token/ERC721/extensions/ERC721URIStorage.sol\";\ncontract NftItem is ERC721URIStorage {\n    using Counters for Counters.Counter;\n    Counters.Counter private _tokenIds;\n\n    constructor(string memory name, string memory symbol_) ERC721(name, symbol_) {}\n\n  \n    function mintNewTokenTo(\n        address _to,\n        uint256  _tokenId,\n        string memory  _tokenURI\n    ) public\n    {\n        super._mint(_to, _tokenId);\n        super._setTokenURI(_tokenId, _tokenURI);\n    }\n\n\n    function awardSequentialItem(address consortiumUser, string memory tokenURI)\n        public\n        returns (uint256)\n    {\n        _tokenIds.increment();\n\n        uint256 newItemId = _tokenIds.current();\n        _mint(consortiumUser, newItemId);\n        _setTokenURI(newItemId, tokenURI);\n\n        return newItemId;\n    }\n}\n",
  "sourcePath": "/home/salman/newclone/consortium-network/network/consortium_contracts/contracts/NFT_ERC720.sol",
  "compiler": {
    "name": "solc",
    "version": "0.8.7+commit.e28d00a7.Emscripten.clang"
  },
  "schemaVersion": "3.4.3",
  "updatedAt": "2021-08-25T01:05:05.628Z",
  "networkType": "quorum",
  "devdoc": {
    "kind": "dev",
    "methods": {
      "approve(address,uint256)": {
        "details": "See {IERC721-approve}."
      },
      "balanceOf(address)": {
        "details": "See {IERC721-balanceOf}."
      },
      "getApproved(uint256)": {
        "details": "See {IERC721-getApproved}."
      },
      "isApprovedForAll(address,address)": {
        "details": "See {IERC721-isApprovedForAll}."
      },
      "name()": {
        "details": "See {IERC721Metadata-name}."
      },
      "ownerOf(uint256)": {
        "details": "See {IERC721-ownerOf}."
      },
      "safeTransferFrom(address,address,uint256)": {
        "details": "See {IERC721-safeTransferFrom}."
      },
      "safeTransferFrom(address,address,uint256,bytes)": {
        "details": "See {IERC721-safeTransferFrom}."
      },
      "setApprovalForAll(address,bool)": {
        "details": "See {IERC721-setApprovalForAll}."
      },
      "supportsInterface(bytes4)": {
        "details": "See {IERC165-supportsInterface}."
      },
      "symbol()": {
        "details": "See {IERC721Metadata-symbol}."
      },
      "tokenURI(uint256)": {
        "details": "See {IERC721Metadata-tokenURI}."
      },
      "transferFrom(address,address,uint256)": {
        "details": "See {IERC721-transferFrom}."
      }
    },
    "version": 1
  },
  "userdoc": {
    "kind": "user",
    "methods": {},
    "version": 1
  }
}